{
  "contractName": "AccessControlSegregator",
  "abi": [
    {
      "inputs": [
        {
          "internalType": "bytes4[]",
          "name": "functions",
          "type": "bytes4[]"
        },
        {
          "internalType": "address[]",
          "name": "accounts",
          "type": "address[]"
        }
      ],
      "stateMutability": "nonpayable",
      "type": "constructor"
    },
    {
      "inputs": [],
      "name": "GRANT_ACCESS_SIG",
      "outputs": [
        {
          "internalType": "bytes4",
          "name": "",
          "type": "bytes4"
        }
      ],
      "stateMutability": "view",
      "type": "function"
    },
    {
      "inputs": [
        {
          "internalType": "bytes4",
          "name": "",
          "type": "bytes4"
        }
      ],
      "name": "functionAccess",
      "outputs": [
        {
          "internalType": "address",
          "name": "",
          "type": "address"
        }
      ],
      "stateMutability": "view",
      "type": "function"
    },
    {
      "inputs": [
        {
          "internalType": "bytes4",
          "name": "sig",
          "type": "bytes4"
        },
        {
          "internalType": "address",
          "name": "account",
          "type": "address"
        }
      ],
      "name": "hasAccess",
      "outputs": [
        {
          "internalType": "bool",
          "name": "",
          "type": "bool"
        }
      ],
      "stateMutability": "view",
      "type": "function"
    },
    {
      "inputs": [
        {
          "internalType": "bytes4",
          "name": "sig",
          "type": "bytes4"
        },
        {
          "internalType": "address",
          "name": "account",
          "type": "address"
        }
      ],
      "name": "grantAccess",
      "outputs": [],
      "stateMutability": "nonpayable",
      "type": "function"
    }
  ],
  "bytecode": "0x608060405234801561001057600080fd5b506040516105f33803806105f383398101604081905261002f91610251565b81518151146100845760405162461bcd60e51b815260206004820152601c60248201527f6172726179206c656e6774682073686f756c6420626520657175616c00000000604482015260640160405180910390fd5b63a973ec9360e01b60009081526020527fd777efdeb12ce631e4e7bb4096e8e44d294f90a879efcd2b8ba060ee12cec7fc80546001600160a01b0319163317905560005b8151811015610125576101138382815181106100e6576100e6610323565b602002602001015183838151811061010057610100610323565b602002602001015161012d60201b60201c565b8061011d81610339565b9150506100c8565b505050610362565b6001600160e01b031991909116600090815260208190526040902080546001600160a01b0319166001600160a01b03909216919091179055565b634e487b7160e01b600052604160045260246000fd5b604051601f8201601f191681016001600160401b03811182821017156101a5576101a5610167565b604052919050565b60006001600160401b038211156101c6576101c6610167565b5060051b60200190565b600082601f8301126101e157600080fd5b815160206101f66101f1836101ad565b61017d565b82815260059290921b8401810191818101908684111561021557600080fd5b8286015b848110156102465780516001600160a01b03811681146102395760008081fd5b8352918301918301610219565b509695505050505050565b6000806040838503121561026457600080fd5b82516001600160401b038082111561027b57600080fd5b818501915085601f83011261028f57600080fd5b8151602061029f6101f1836101ad565b82815260059290921b840181019181810190898411156102be57600080fd5b948201945b838610156102f35785516001600160e01b0319811681146102e45760008081fd5b825294820194908201906102c3565b9188015191965090935050508082111561030c57600080fd5b50610319858286016101d0565b9150509250929050565b634e487b7160e01b600052603260045260246000fd5b600060001982141561035b57634e487b7160e01b600052601160045260246000fd5b5060010190565b610282806103716000396000f3fe608060405234801561001057600080fd5b506004361061004c5760003560e01c806371c9521c146100515780639bec8dd314610079578063a973ec93146100a0578063f2bff788146100b5575b600080fd5b61006461005f3660046101e7565b6100f6565b60405190151581526020015b60405180910390f35b61008763a973ec9360e01b81565b6040516001600160e01b03199091168152602001610070565b6100b36100ae3660046101e7565b610123565b005b6100de6100c336600461022a565b6000602081905290815260409020546001600160a01b031681565b6040516001600160a01b039091168152602001610070565b6001600160e01b0319919091166000908152602081905260409020546001600160a01b0391821691161490565b61013463a973ec9360e01b336100f6565b6101945760405162461bcd60e51b815260206004820152602760248201527f73656e64657220646f65736e27742068617665206772616e74206163636573736044820152662072696768747360c81b606482015260840160405180910390fd5b6001600160e01b03198216600090815260208190526040902080546001600160a01b0319166001600160a01b0383161790555050565b80356001600160e01b0319811681146101e257600080fd5b919050565b600080604083850312156101fa57600080fd5b610203836101ca565b915060208301356001600160a01b038116811461021f57600080fd5b809150509250929050565b60006020828403121561023c57600080fd5b610245826101ca565b939250505056fea26469706673582212209379a3b078993c2fea4089f924a28fa6ee1bdd8f7cf10ac983a13eb2a9d093e464736f6c634300080b0033",
  "immutableReferences": {},
  "source": "// The Licensed Work is (c) 2022 Sygma\n// SPDX-License-Identifier: LGPL-3.0-only\npragma solidity 0.8.11;\n\n/**\n    @title Handles access control per contract function.\n    @author ChainSafe Systems.\n    @notice This contract is intended to be used by the Bridge contract.\n */\ncontract AccessControlSegregator {\n    // function signature => address has access\n    mapping(bytes4 => address) public functionAccess;\n\n    bytes4 public constant GRANT_ACCESS_SIG = AccessControlSegregator(address(0)).grantAccess.selector;\n\n    /**\n        @notice Initializes access control to functions and sets initial\n        access to grantAccess function.\n        @param functions List of functions to be granted access to.\n        @param accounts List of accounts.\n    */\n    constructor(bytes4[] memory functions, address[] memory accounts) {\n        require(accounts.length == functions.length, \"array length should be equal\");\n\n        _grantAccess(GRANT_ACCESS_SIG, msg.sender);\n        for (uint i=0; i < accounts.length; i++) {\n            _grantAccess(functions[i], accounts[i]);\n        }\n    }\n\n    /**\n        @notice Returns boolean value if account has access to function.\n        @param sig Function identifier.\n        @param account Address of account.\n        @return Boolean value depending if account has access.\n    */\n    function hasAccess(bytes4 sig, address account) public view returns (bool)  {\n        return functionAccess[sig] == account;\n    }\n\n    /**\n        @notice Grants access to an account for a function.\n        @notice Set account to zero address to revoke access.\n        @param sig Function identifier.\n        @param account Address of account.\n    */\n    function grantAccess(bytes4 sig, address account) public {\n        require(hasAccess(GRANT_ACCESS_SIG, msg.sender), \"sender doesn't have grant access rights\");\n\n        _grantAccess(sig, account);\n    }\n\n    function _grantAccess(bytes4 sig, address account) private {\n        functionAccess[sig] = account;\n    }\n}",
  "sourcePath": "/home/nath/project/bridge/smart-contracts/contracts/utils/AccessControlSegregator.sol",
  "compiler": {
    "name": "solc",
    "version": "0.8.11+commit.d7f03943.Emscripten.clang"
  },
  "schemaVersion": "3.4.16",
  "updatedAt": "2025-03-19T01:37:36.846Z",
  "devdoc": {
    "author": "ChainSafe Systems.",
    "kind": "dev",
    "methods": {
      "constructor": {
        "params": {
          "accounts": "List of accounts.",
          "functions": "List of functions to be granted access to."
        }
      },
      "grantAccess(bytes4,address)": {
        "params": {
          "account": "Address of account.",
          "sig": "Function identifier."
        }
      },
      "hasAccess(bytes4,address)": {
        "params": {
          "account": "Address of account.",
          "sig": "Function identifier."
        },
        "returns": {
          "_0": "Boolean value depending if account has access."
        }
      }
    },
    "title": "Handles access control per contract function.",
    "version": 1
  },
  "userdoc": {
    "kind": "user",
    "methods": {
      "constructor": {
        "notice": "Initializes access control to functions and sets initial access to grantAccess function."
      },
      "grantAccess(bytes4,address)": {
        "notice": "Grants access to an account for a function.Set account to zero address to revoke access."
      },
      "hasAccess(bytes4,address)": {
        "notice": "Returns boolean value if account has access to function."
      }
    },
    "notice": "This contract is intended to be used by the Bridge contract.",
    "version": 1
  }
}