{
  "contractName": "ERC20Handler",
  "abi": [
    {
      "inputs": [
        {
          "internalType": "address",
          "name": "bridgeAddress",
          "type": "address"
        },
        {
          "internalType": "address",
          "name": "defaultMessageReceiver",
          "type": "address"
        }
      ],
      "stateMutability": "nonpayable",
      "type": "constructor"
    },
    {
      "inputs": [
        {
          "internalType": "address",
          "name": "contractAddress",
          "type": "address"
        }
      ],
      "name": "ContractAddressNotWhitelisted",
      "type": "error"
    },
    {
      "inputs": [],
      "name": "NotAuthorized",
      "type": "error"
    },
    {
      "inputs": [],
      "name": "OptionalMessageCallFailed",
      "type": "error"
    },
    {
      "inputs": [
        {
          "internalType": "uint256",
          "name": "actual",
          "type": "uint256"
        },
        {
          "internalType": "uint256",
          "name": "expected",
          "type": "uint256"
        }
      ],
      "name": "UnexpectedValue",
      "type": "error"
    },
    {
      "inputs": [],
      "name": "ZeroAddress",
      "type": "error"
    },
    {
      "anonymous": false,
      "inputs": [
        {
          "indexed": true,
          "internalType": "bytes32",
          "name": "role",
          "type": "bytes32"
        },
        {
          "indexed": true,
          "internalType": "address",
          "name": "account",
          "type": "address"
        },
        {
          "indexed": true,
          "internalType": "address",
          "name": "sender",
          "type": "address"
        }
      ],
      "name": "RoleGranted",
      "type": "event"
    },
    {
      "anonymous": false,
      "inputs": [
        {
          "indexed": true,
          "internalType": "bytes32",
          "name": "role",
          "type": "bytes32"
        },
        {
          "indexed": true,
          "internalType": "address",
          "name": "account",
          "type": "address"
        },
        {
          "indexed": true,
          "internalType": "address",
          "name": "sender",
          "type": "address"
        }
      ],
      "name": "RoleRevoked",
      "type": "event"
    },
    {
      "inputs": [],
      "name": "DEFAULT_ADMIN_ROLE",
      "outputs": [
        {
          "internalType": "bytes32",
          "name": "",
          "type": "bytes32"
        }
      ],
      "stateMutability": "view",
      "type": "function"
    },
    {
      "inputs": [],
      "name": "LIQUIDITY_MANAGER_ROLE",
      "outputs": [
        {
          "internalType": "bytes32",
          "name": "",
          "type": "bytes32"
        }
      ],
      "stateMutability": "view",
      "type": "function"
    },
    {
      "inputs": [],
      "name": "_bridgeAddress",
      "outputs": [
        {
          "internalType": "address",
          "name": "",
          "type": "address"
        }
      ],
      "stateMutability": "view",
      "type": "function"
    },
    {
      "inputs": [],
      "name": "_defaultMessageReceiver",
      "outputs": [
        {
          "internalType": "address",
          "name": "",
          "type": "address"
        }
      ],
      "stateMutability": "view",
      "type": "function"
    },
    {
      "inputs": [
        {
          "internalType": "bytes32",
          "name": "",
          "type": "bytes32"
        }
      ],
      "name": "_resourceIDToTokenContractAddress",
      "outputs": [
        {
          "internalType": "address",
          "name": "",
          "type": "address"
        }
      ],
      "stateMutability": "view",
      "type": "function"
    },
    {
      "inputs": [
        {
          "internalType": "address",
          "name": "",
          "type": "address"
        }
      ],
      "name": "_tokenContractAddressToTokenProperties",
      "outputs": [
        {
          "internalType": "bytes32",
          "name": "resourceID",
          "type": "bytes32"
        },
        {
          "internalType": "bool",
          "name": "isWhitelisted",
          "type": "bool"
        },
        {
          "internalType": "bool",
          "name": "isBurnable",
          "type": "bool"
        },
        {
          "components": [
            {
              "internalType": "bool",
              "name": "isSet",
              "type": "bool"
            },
            {
              "internalType": "uint8",
              "name": "externalDecimals",
              "type": "uint8"
            }
          ],
          "internalType": "struct ERCHandlerHelpers.Decimals",
          "name": "decimals",
          "type": "tuple"
        }
      ],
      "stateMutability": "view",
      "type": "function"
    },
    {
      "inputs": [],
      "name": "defaultDecimals",
      "outputs": [
        {
          "internalType": "uint8",
          "name": "",
          "type": "uint8"
        }
      ],
      "stateMutability": "view",
      "type": "function"
    },
    {
      "inputs": [
        {
          "internalType": "bytes32",
          "name": "role",
          "type": "bytes32"
        }
      ],
      "name": "getRoleAdmin",
      "outputs": [
        {
          "internalType": "bytes32",
          "name": "",
          "type": "bytes32"
        }
      ],
      "stateMutability": "view",
      "type": "function"
    },
    {
      "inputs": [
        {
          "internalType": "bytes32",
          "name": "role",
          "type": "bytes32"
        },
        {
          "internalType": "uint256",
          "name": "index",
          "type": "uint256"
        }
      ],
      "name": "getRoleMember",
      "outputs": [
        {
          "internalType": "address",
          "name": "",
          "type": "address"
        }
      ],
      "stateMutability": "view",
      "type": "function"
    },
    {
      "inputs": [
        {
          "internalType": "bytes32",
          "name": "role",
          "type": "bytes32"
        }
      ],
      "name": "getRoleMemberCount",
      "outputs": [
        {
          "internalType": "uint256",
          "name": "",
          "type": "uint256"
        }
      ],
      "stateMutability": "view",
      "type": "function"
    },
    {
      "inputs": [
        {
          "internalType": "bytes32",
          "name": "role",
          "type": "bytes32"
        },
        {
          "internalType": "address",
          "name": "account",
          "type": "address"
        }
      ],
      "name": "getRoleMemberIndex",
      "outputs": [
        {
          "internalType": "uint256",
          "name": "",
          "type": "uint256"
        }
      ],
      "stateMutability": "view",
      "type": "function"
    },
    {
      "inputs": [
        {
          "internalType": "bytes32",
          "name": "role",
          "type": "bytes32"
        },
        {
          "internalType": "address",
          "name": "account",
          "type": "address"
        }
      ],
      "name": "grantRole",
      "outputs": [],
      "stateMutability": "nonpayable",
      "type": "function"
    },
    {
      "inputs": [
        {
          "internalType": "bytes32",
          "name": "role",
          "type": "bytes32"
        },
        {
          "internalType": "address",
          "name": "account",
          "type": "address"
        }
      ],
      "name": "hasRole",
      "outputs": [
        {
          "internalType": "bool",
          "name": "",
          "type": "bool"
        }
      ],
      "stateMutability": "view",
      "type": "function"
    },
    {
      "inputs": [
        {
          "internalType": "bytes32",
          "name": "role",
          "type": "bytes32"
        },
        {
          "internalType": "address",
          "name": "account",
          "type": "address"
        }
      ],
      "name": "renounceRole",
      "outputs": [],
      "stateMutability": "nonpayable",
      "type": "function"
    },
    {
      "inputs": [
        {
          "internalType": "bytes32",
          "name": "role",
          "type": "bytes32"
        },
        {
          "internalType": "address",
          "name": "account",
          "type": "address"
        }
      ],
      "name": "revokeRole",
      "outputs": [],
      "stateMutability": "nonpayable",
      "type": "function"
    },
    {
      "inputs": [
        {
          "internalType": "address",
          "name": "contractAddress",
          "type": "address"
        }
      ],
      "name": "setBurnable",
      "outputs": [],
      "stateMutability": "nonpayable",
      "type": "function"
    },
    {
      "inputs": [
        {
          "internalType": "bytes32",
          "name": "resourceID",
          "type": "bytes32"
        },
        {
          "internalType": "address",
          "name": "depositor",
          "type": "address"
        },
        {
          "internalType": "bytes",
          "name": "data",
          "type": "bytes"
        }
      ],
      "name": "deposit",
      "outputs": [
        {
          "internalType": "bytes",
          "name": "",
          "type": "bytes"
        }
      ],
      "stateMutability": "nonpayable",
      "type": "function"
    },
    {
      "inputs": [
        {
          "internalType": "bytes32",
          "name": "resourceID",
          "type": "bytes32"
        },
        {
          "internalType": "bytes",
          "name": "data",
          "type": "bytes"
        }
      ],
      "name": "executeProposal",
      "outputs": [
        {
          "internalType": "bytes",
          "name": "",
          "type": "bytes"
        }
      ],
      "stateMutability": "nonpayable",
      "type": "function"
    },
    {
      "inputs": [
        {
          "internalType": "bytes",
          "name": "data",
          "type": "bytes"
        }
      ],
      "name": "withdraw",
      "outputs": [],
      "stateMutability": "nonpayable",
      "type": "function"
    },
    {
      "inputs": [
        {
          "internalType": "bytes32",
          "name": "resourceID",
          "type": "bytes32"
        },
        {
          "internalType": "address",
          "name": "contractAddress",
          "type": "address"
        },
        {
          "internalType": "bytes",
          "name": "args",
          "type": "bytes"
        }
      ],
      "name": "setResource",
      "outputs": [],
      "stateMutability": "nonpayable",
      "type": "function"
    }
  ],
  "bytecode": "0x60c06040523480156200001157600080fd5b5060405162001e2238038062001e2283398101604081905262000034916200019a565b6001600160a01b0382166080528181816200005160003362000094565b6200007d7f77e60b99a50d27fb027f6912a507d956105b4148adab27a86d235c8bcca8fa2f8262000094565b506001600160a01b031660a05250620001d2915050565b620000a08282620000a4565b5050565b600082815260208181526040909120620000c9918390620009906200010b821b17901c565b15620000a05760405133906001600160a01b0383169084907f2f8788117e7eff1d82e926ec794901d17c78024a50270940304540a733656f0d90600090a45050565b600062000122836001600160a01b0384166200012b565b90505b92915050565b6000818152600183016020526040812054620001745750815460018181018455600084815260208082209093018490558454848252828601909352604090209190915562000125565b50600062000125565b80516001600160a01b03811681146200019557600080fd5b919050565b60008060408385031215620001ae57600080fd5b620001b9836200017d565b9150620001c9602084016200017d565b90509250929050565b60805160a051611c1c62000206600039600081816102b40152610e8e01526000818161022901526109b00152611c1c6000f3fe608060405234801561001057600080fd5b506004361061012c5760003560e01c80639010d07c116100ad578063b07e54bb11610071578063b07e54bb1461036b578063ca15c8731461038b578063d547741f1461039e578063e248cff2146103b1578063fa8675b0146103c457600080fd5b80639010d07c1461027157806391d1485414610284578063a217fddf146102a7578063a2f21f8a146102af578063ac607c21146102d657600080fd5b80632f2ff15d116100f45780632f2ff15d146101f757806330f08abd1461020a578063318c136e1461022457806336568abe1461024b5780634e0df3f61461025e57600080fd5b806307b7ed99146101315780630968f264146101465780630a6d55d814610159578063242f05511461019f578063248a9ca3146101d4575b600080fd5b61014461013f3660046115ca565b6103d7565b005b6101446101543660046115fd565b6103eb565b6101826101673660046116ae565b6001602052600090815260409020546001600160a01b031681565b6040516001600160a01b0390911681526020015b60405180910390f35b6101c67f77e60b99a50d27fb027f6912a507d956105b4148adab27a86d235c8bcca8fa2f81565b604051908152602001610196565b6101c66101e23660046116ae565b60009081526020819052604090206002015490565b6101446102053660046116c7565b610437565b610212601281565b60405160ff9091168152602001610196565b6101827f000000000000000000000000000000000000000000000000000000000000000081565b6101446102593660046116c7565b6104ca565b6101c661026c3660046116c7565b610544565b61018261027f3660046116f7565b61056f565b6102976102923660046116c7565b61058e565b6040519015158152602001610196565b6101c6600081565b6101827f000000000000000000000000000000000000000000000000000000000000000081565b6103336102e43660046115ca565b600260208181526000928352604092839020805460018201548551808701909652919093015460ff81811615158652610100918290048116938601939093529293828216939091049091169084565b6040805194855292151560208086019190915291151592840192909252815115156060840152015160ff16608082015260a001610196565b61037e610379366004611762565b6105a6565b6040516101969190611816565b6101c66103993660046116ae565b61066f565b6101446103ac3660046116c7565b610686565b61037e6103bf366004611829565b610707565b6101446103d2366004611762565b610905565b6103df6109a5565b6103e881610a1f565b50565b6103f3610a8f565b60008060008380602001905181019061040c9190611875565b919450925090506104256001600160a01b038316610ad6565b50610431838383610b03565b50505050565b600082815260208190526040902060020154610453903361058e565b6104bc5760405162461bcd60e51b815260206004820152602f60248201527f416363657373436f6e74726f6c3a2073656e646572206d75737420626520616e60448201526e0818591b5a5b881d1bc819dc985b9d608a1b60648201526084015b60405180910390fd5b6104c68282610b0f565b5050565b6001600160a01b038116331461053a5760405162461bcd60e51b815260206004820152602f60248201527f416363657373436f6e74726f6c3a2063616e206f6e6c792072656e6f756e636560448201526e103937b632b9903337b91039b2b63360891b60648201526084016104b3565b6104c68282610b68565b6000828152602081815260408083206001600160a01b03851684526001019091529020545b92915050565b60008281526020819052604081206105879083610bc1565b9392505050565b60008281526020819052604081206105879083610bcd565b60606105b06109a5565b60006105be838501856116ae565b6000878152600160208181526040808420546001600160a01b0316808552600290925290922001549192509060ff16610615576040516325df77c560e11b81526001600160a01b03821660048201526024016104b3565b6001600160a01b038116600090815260026020526040902060010154610100900460ff161561064e57610649818784610bef565b61065a565b61065a81873085610c5b565b6106648183610c68565b979650505050505050565b600081815260208190526040812061056990610d54565b6000828152602081905260409020600201546106a2903361058e565b61053a5760405162461bcd60e51b815260206004820152603060248201527f416363657373436f6e74726f6c3a2073656e646572206d75737420626520616e60448201526f2061646d696e20746f207265766f6b6560801b60648201526084016104b3565b60606107116109a5565b600061071e858585610d5e565b80516001600160a01b031660009081526002602052604090206001015490915060ff1661076c5780516040516325df77c560e11b81526001600160a01b0390911660048201526024016104b3565b80516001600160a01b0316600090815260026020526040902060010154610100900460ff16156107b2576107ad816000015182604001518360600151610fdc565b6107c9565b6107c9816000015182604001518360600151610b03565b60028160a0015160028111156107e1576107e16118b8565b14156107f25760c001519050610587565b60018160a00151600281111561080a5761080a6118b8565b14156108b157600080610844836080015160006101008660c0015187604001516001600160a01b031661101490949392919063ffffffff16565b915091508115801561085c575061085a8161109f565b155b1561087a57604051632f89bddb60e21b815260040160405180910390fd5b825160408085015160208087015192516108989493918691016118ce565b6040516020818303038152906040529350505050610587565b805160408083015160208085015192516108ec949391016001600160a01b039384168152919092166020820152604081019190915260600190565b6040516020818303038152906040529150509392505050565b61090d6109a5565b61091f836001600160a01b0316610ad6565b50600084815260016020818152604080842080546001600160a01b0319166001600160a01b038916908117909155845260029091529091208581558101805461ffff19169091179055801561043157600061097a828461190b565b60f81c905061098984826110ba565b5050505050565b6000610587836001600160a01b03841661115e565b336001600160a01b037f00000000000000000000000000000000000000000000000000000000000000001614610a1d5760405162461bcd60e51b815260206004820152601e60248201527f73656e646572206d7573742062652062726964676520636f6e7472616374000060448201526064016104b3565b565b6001600160a01b03811660009081526002602052604090206001015460ff16610a66576040516325df77c560e11b81526001600160a01b03821660048201526024016104b3565b6001600160a01b03166000908152600260205260409020600101805461ff001916610100179055565b610ab97f77e60b99a50d27fb027f6912a507d956105b4148adab27a86d235c8bcca8fa2f3361058e565b610a1d5760405163ea8e4eb560e01b815260040160405180910390fd5b60006001600160a01b038216610aff5760405163d92e233d60e01b815260040160405180910390fd5b5090565b826104318184846111ad565b6000828152602081905260409020610b279082610990565b156104c65760405133906001600160a01b0383169084907f2f8788117e7eff1d82e926ec794901d17c78024a50270940304540a733656f0d90600090a45050565b6000828152602081905260409020610b809082611215565b156104c65760405133906001600160a01b0383169084907ff6391f5c32d9c69d2a47ea670b442974b53935d1edc7fd64eb21e047a839171b90600090a45050565b6000610587838361122a565b6001600160a01b03811660009081526001830160205260408120541515610587565b60405163079cc67960e41b81526001600160a01b038381166004830152602482018390528491908216906379cc6790906044015b600060405180830381600087803b158015610c3d57600080fd5b505af1158015610c51573d6000803e3d6000fd5b5050505050505050565b8361098981858585611254565b6001600160a01b038216600090815260026020818152604080842081518083019092529092015460ff8082161515808552610100909204169183019190915260609290610cc8576040518060200160405280600081525092505050610569565b601260ff16826020015160ff1610610d075760128260200151610ceb9190611951565b610cf690600a611a58565b610d009085611a67565b9050610d2f565b6020820151610d17906012611951565b610d2290600a611a58565b610d2c9085611a89565b90505b6040805160208101839052016040516020818303038152906040529250505092915050565b6000610569825490565b610d9e6040805160e08101825260008082526020820181905291810182905260608101829052608081018290529060a08201908152602001606081525090565b600080610dad848601866116f7565b9092509050610dbd81601461128c565b506000610dce605460408789611aa8565b610dd791611ad2565b60008881526001602052604081205460609290921c92506001600160a01b0390911690610e0482866112bf565b90506054600080606081610e19856040611b05565b8c1115610f75578c8c86908092610e3293929190611aa8565b810190610e3f91906116f7565b9094509250610e4f604086611b05565b9450600084118015610e615750600083115b8015610e7657508b610e738685611b05565b11155b15610f23575060016001600160a01b038816610eb0577f000000000000000000000000000000000000000000000000000000000000000097505b634726ca4360e01b87878f8f8990888b610eca9190611b05565b92610ed793929190611aa8565b604051602401610eea9493929190611b1d565b60408051601f198184030181529190526020810180516001600160e01b03166001600160e01b0319909316929092179091529150610f75565b506040805160048152602481018252602080820180516001600160e01b03166356a6881560e11b1790529151600292610f63928a928c928f9291016118ce565b60405160208183030381529060405291505b6040518060e00160405280886001600160a01b031681526020018b8152602001896001600160a01b03168152602001878152602001858152602001826002811115610fc257610fc26118b8565b815260200192909252509c9b505050505050505050505050565b6040516340c10f1960e01b81526001600160a01b038381166004830152602482018390528491908216906340c10f1990604401610c23565b6000606060008060008661ffff1667ffffffffffffffff81111561103a5761103a6115e7565b6040519080825280601f01601f191660200182016040528015611064576020820181803683370190505b5090506000808751602089018b8e8ef191503d925086831115611085578692505b828152826000602083013e90999098509650505050505050565b8051600090156110b25781518083602001fd5b506000919050565b6001600160a01b03821660009081526002602052604090206001015460ff16611101576040516325df77c560e11b81526001600160a01b03831660048201526024016104b3565b6040805180820182526001815260ff92831660208083019182526001600160a01b0395909516600090815260029586905292909220905193018054915161ffff1990921693151561ff001916939093176101009190921602179055565b60008181526001830160205260408120546111a557508154600181810184556000848152602080822090930184905584548482528286019093526040902091909155610569565b506000610569565b6040516001600160a01b03831660248201526044810182905261121090849063a9059cbb60e01b906064015b60408051601f198184030181529190526020810180516001600160e01b03166001600160e01b031990931692909217909152611370565b505050565b6000610587836001600160a01b0384166114c2565b600082600001828154811061124157611241611b65565b9060005260206000200154905092915050565b6040516001600160a01b03808516602483015283166044820152606481018290526104319085906323b872dd60e01b906084016111d9565b60008183146112b85760405163c230690360e01b815260048101849052602481018390526044016104b3565b5090919050565b6001600160a01b038216600090815260026020818152604080842081518083019092529092015460ff8082161515808552610100909204169183019190915261130b5782915050610569565b601260ff16816020015160ff161061134b576012816020015161132e9190611951565b61133990600a611a58565b6113439084611a89565b915050610569565b602081015161135b906012611951565b61136690600a611a58565b6113439084611a67565b813b806113b75760405162461bcd60e51b8152602060048201526015602482015274115490cc8c0e881b9bdd08184818dbdb9d1c9858dd605a1b60448201526064016104b3565b600080846001600160a01b0316846040516113d29190611b7b565b6000604051808303816000865af19150503d806000811461140f576040519150601f19603f3d011682016040523d82523d6000602084013e611414565b606091505b50915091508161145b5760405162461bcd60e51b8152602060048201526012602482015271115490cc8c0e8818d85b1b0819985a5b195960721b60448201526064016104b3565b80511561098957808060200190518101906114769190611b97565b6109895760405162461bcd60e51b815260206004820181905260248201527f45524332303a206f7065726174696f6e20646964206e6f74207375636365656460448201526064016104b3565b600081815260018301602052604081205480156115ab5760006114e6600183611bb9565b85549091506000906114fa90600190611bb9565b905081811461155f57600086600001828154811061151a5761151a611b65565b906000526020600020015490508087600001848154811061153d5761153d611b65565b6000918252602080832090910192909255918252600188019052604090208390555b855486908061157057611570611bd0565b600190038181906000526020600020016000905590558560010160008681526020019081526020016000206000905560019350505050610569565b6000915050610569565b6001600160a01b03811681146103e857600080fd5b6000602082840312156115dc57600080fd5b8135610587816115b5565b634e487b7160e01b600052604160045260246000fd5b60006020828403121561160f57600080fd5b813567ffffffffffffffff8082111561162757600080fd5b818401915084601f83011261163b57600080fd5b81358181111561164d5761164d6115e7565b604051601f8201601f19908116603f01168101908382118183101715611675576116756115e7565b8160405282815287602084870101111561168e57600080fd5b826020860160208301376000928101602001929092525095945050505050565b6000602082840312156116c057600080fd5b5035919050565b600080604083850312156116da57600080fd5b8235915060208301356116ec816115b5565b809150509250929050565b6000806040838503121561170a57600080fd5b50508035926020909101359150565b60008083601f84011261172b57600080fd5b50813567ffffffffffffffff81111561174357600080fd5b60208301915083602082850101111561175b57600080fd5b9250929050565b6000806000806060858703121561177857600080fd5b84359350602085013561178a816115b5565b9250604085013567ffffffffffffffff8111156117a657600080fd5b6117b287828801611719565b95989497509550505050565b60005b838110156117d95781810151838201526020016117c1565b838111156104315750506000910152565b600081518084526118028160208601602086016117be565b601f01601f19169290920160200192915050565b60208152600061058760208301846117ea565b60008060006040848603121561183e57600080fd5b83359250602084013567ffffffffffffffff81111561185c57600080fd5b61186886828701611719565b9497909650939450505050565b60008060006060848603121561188a57600080fd5b8351611895816115b5565b60208501519093506118a6816115b5565b80925050604084015190509250925092565b634e487b7160e01b600052602160045260246000fd5b6001600160a01b0385811682528416602082015260408101839052608060608201819052600090611901908301846117ea565b9695505050505050565b6001600160f81b031981358181169160018510156119335780818660010360031b1b83161692505b505092915050565b634e487b7160e01b600052601160045260246000fd5b600060ff821660ff84168082101561196b5761196b61193b565b90039392505050565b600181815b808511156119af5781600019048211156119955761199561193b565b808516156119a257918102915b93841c9390800290611979565b509250929050565b6000826119c657506001610569565b816119d357506000610569565b81600181146119e957600281146119f357611a0f565b6001915050610569565b60ff841115611a0457611a0461193b565b50506001821b610569565b5060208310610133831016604e8410600b8410161715611a32575081810a610569565b611a3c8383611974565b8060001904821115611a5057611a5061193b565b029392505050565b600061058760ff8416836119b7565b600082611a8457634e487b7160e01b600052601260045260246000fd5b500490565b6000816000190483118215151615611aa357611aa361193b565b500290565b60008085851115611ab857600080fd5b83861115611ac557600080fd5b5050820193919092039150565b6bffffffffffffffffffffffff1981358181169160148510156119335760149490940360031b84901b1690921692915050565b60008219821115611b1857611b1861193b565b500190565b6001600160a01b0385168152602081018490526060604082018190528101829052818360808301376000818301608090810191909152601f909201601f191601019392505050565b634e487b7160e01b600052603260045260246000fd5b60008251611b8d8184602087016117be565b9190910192915050565b600060208284031215611ba957600080fd5b8151801515811461058757600080fd5b600082821015611bcb57611bcb61193b565b500390565b634e487b7160e01b600052603160045260246000fdfea2646970667358221220ba3ba1e5987c2169bf1a44b457d097208634c47614df9ed86ddc19693c12835a64736f6c634300080b0033",
  "immutableReferences": {
    "5540": [
      {
        "length": 32,
        "start": 692
      },
      {
        "length": 32,
        "start": 3726
      }
    ],
    "6127": [
      {
        "length": 32,
        "start": 553
      },
      {
        "length": 32,
        "start": 2480
      }
    ]
  },
  "source": "// The Licensed Work is (c) 2022 Sygma\n// SPDX-License-Identifier: LGPL-3.0-only\npragma solidity 0.8.11;\n\nimport \"../interfaces/IHandler.sol\";\nimport \"./ERCHandlerHelpers.sol\";\nimport { ERC20Safe } from \"../ERC20Safe.sol\";\nimport \"./DepositDataHelper.sol\";\nimport \"../utils/ExcessivelySafeCall.sol\";\n\n/**\n    @title Handles ERC20 deposits and deposit executions.\n    @author ChainSafe Systems.\n    @notice This contract is intended to be used with the Bridge contract.\n */\ncontract ERC20Handler is IHandler, ERCHandlerHelpers, DepositDataHelper, ERC20Safe {\n    using SanityChecks for *;\n    using ExcessivelySafeCall for address;\n\n    error OptionalMessageCallFailed();\n\n    /**\n        @param bridgeAddress Contract address of previously deployed Bridge.\n        @param defaultMessageReceiver Contract address of previously deployed DefaultMessageReceiver.\n     */\n    constructor(\n        address bridgeAddress,\n        address defaultMessageReceiver\n    ) DepositDataHelper(bridgeAddress, defaultMessageReceiver) {}\n\n    /**\n        @notice A deposit is initiated by making a deposit in the Bridge contract.\n        @param resourceID ResourceID used to find address of token to be used for deposit.\n        @param depositor Address of account making the deposit in the Bridge contract.\n        @param data Consists of {amount}, {recipient}, {optionalGas}, {optionalMessage},\n        padded to 32 bytes.\n        @notice Data passed into the function should be constructed as follows:\n        amount                             uint256 bytes  0 - 32\n        destinationRecipientAddress length uint256 bytes 32 - 64\n        destinationRecipientAddress        bytes   bytes 64 - (64 + len(destinationRecipientAddress))\n        optionalGas                        uint256 bytes (64 + len(destinationRecipientAddress)) - (96 + len(destinationRecipientAddress))\n        optionalMessage             length uint256 bytes (96 + len(destinationRecipientAddress)) - (128 + len(destinationRecipientAddress))\n        optionalMessage                    bytes   bytes (160 + len(destinationRecipientAddress)) - END\n        @dev Depending if the corresponding {tokenAddress} for the parsed {resourceID} is\n        marked true in {_tokenContractAddressToTokenProperties[tokenAddress].isBurnable}, deposited tokens will be burned, if not, they will be locked.\n        @return 32-length byte array with internal bridge amount OR empty byte array if conversion is not needed.\n     */\n    function deposit(\n        bytes32 resourceID,\n        address depositor,\n        bytes   calldata data\n    ) external override onlyBridge returns (bytes memory) {\n        uint256 amount;\n        (amount) = abi.decode(data, (uint256));\n\n        address tokenAddress = _resourceIDToTokenContractAddress[resourceID];\n        if (!_tokenContractAddressToTokenProperties[tokenAddress].isWhitelisted) revert ContractAddressNotWhitelisted(tokenAddress);\n\n        if (_tokenContractAddressToTokenProperties[tokenAddress].isBurnable) {\n            burnERC20(tokenAddress, depositor, amount);\n        } else {\n            lockERC20(tokenAddress, depositor, address(this), amount);\n        }\n\n        return convertToInternalBalance(tokenAddress, amount);\n    }\n\n    /**\n        @notice Proposal execution should be initiated when a proposal is finalized in the Bridge contract.\n        by a relayer on the deposit's destination chain.\n        @param resourceID ResourceID to be used when making deposits.\n        @param data Consists of {amount}, {recipient}, {optionalGas}, {optionalMessage},\n        padded to 32 bytes.\n        @notice Data passed into the function should be constructed as follows:\n        amount                             uint256 bytes  0 - 32\n        destinationRecipientAddress length uint256 bytes 32 - 64\n        destinationRecipientAddress        bytes   bytes 64 - (64 + len(destinationRecipientAddress))\n        optionalGas                        uint256 bytes (64 + len(destinationRecipientAddress)) - (96 + len(destinationRecipientAddress))\n        optionalMessage             length uint256 bytes (96 + len(destinationRecipientAddress)) - (128 + len(destinationRecipientAddress))\n        optionalMessage                    bytes   bytes (160 + len(destinationRecipientAddress)) - END\n     */\n    function executeProposal(bytes32 resourceID, bytes calldata data) external override onlyBridge returns (bytes memory) {\n        DepositData memory depositData = parseDepositData(resourceID, data);\n\n        if (!_tokenContractAddressToTokenProperties[depositData.tokenAddress].isWhitelisted) revert ContractAddressNotWhitelisted(depositData.tokenAddress);\n\n        if (_tokenContractAddressToTokenProperties[depositData.tokenAddress].isBurnable) {\n            mintERC20(depositData.tokenAddress, depositData.recipientAddress, depositData.externalAmount);\n        } else {\n            releaseERC20(depositData.tokenAddress, depositData.recipientAddress, depositData.externalAmount);\n        }\n\n        if (depositData.optionalMessageCheck == OptionalMessageCheck.Invalid) {\n            return depositData.message;\n        }\n\n        if (depositData.optionalMessageCheck == OptionalMessageCheck.Valid) {\n            (bool success, bytes memory result) =\n                depositData.recipientAddress.excessivelySafeCall(depositData.gas, 0, maxReturnBytes, depositData.message);\n            if (!success && !ExcessivelySafeCall.revertWith(result)) revert OptionalMessageCallFailed();\n            return abi.encode(depositData.tokenAddress, depositData.recipientAddress, depositData.amount, result);\n        }\n\n        return abi.encode(depositData.tokenAddress, depositData.recipientAddress, depositData.amount);\n    }\n\n    /**\n        @notice Used to manually release ERC20 tokens from ERC20Safe.\n        @param data Consists of {tokenAddress}, {recipient}, and {amount} all padded to 32 bytes.\n        @notice Data passed into the function should be constructed as follows:\n        tokenAddress                           address     bytes  0 - 32\n        recipient                              address     bytes  32 - 64\n        amount                                 uint        bytes  64 - 96\n     */\n    function withdraw(bytes memory data) external override onlyAuthorized {\n        address tokenAddress;\n        address recipient;\n        uint amount;\n\n        (tokenAddress, recipient, amount) = abi.decode(data, (address, address, uint));\n\n        recipient.mustNotBeZero();\n        releaseERC20(tokenAddress, recipient, amount);\n    }\n\n    /**\n        @notice Sets {_resourceIDToContractAddress} with {contractAddress},\n        {_tokenContractAddressToTokenProperties[tokenAddress].resourceID} with {resourceID} and\n        {_tokenContractAddressToTokenProperties[tokenAddress].isWhitelisted} to true for {contractAddress} in ERCHandlerHelpers contract.\n        Sets decimals value for contractAddress if value is provided in args.\n        @param resourceID ResourceID to be used when making deposits.\n        @param contractAddress Address of contract to be called when a deposit is made and a deposited is executed.\n        @param args Byte array which is either empty if the token contract decimals are the same as the bridge defaultDecimals,\n                    or has a first byte set to the uint8 decimals value of the token contract.\n     */\n    function setResource(bytes32 resourceID, address contractAddress, bytes calldata args) external onlyBridge {\n        contractAddress.mustNotBeZero();\n        _setResource(resourceID, contractAddress);\n\n        if (args.length > 0) {\n            uint8 externalTokenDecimals = uint8(bytes1(args));\n            _setDecimals(contractAddress, externalTokenDecimals);\n        }\n    }\n}",
  "sourcePath": "/home/nath/project/bridge/smart-contracts/contracts/handlers/ERC20Handler.sol",
  "compiler": {
    "name": "solc",
    "version": "0.8.11+commit.d7f03943.Emscripten.clang"
  },
  "schemaVersion": "3.4.16",
  "updatedAt": "2025-03-19T01:37:36.827Z",
  "devdoc": {
    "author": "ChainSafe Systems.",
    "kind": "dev",
    "methods": {
      "constructor": {
        "params": {
          "bridgeAddress": "Contract address of previously deployed Bridge.",
          "defaultMessageReceiver": "Contract address of previously deployed DefaultMessageReceiver."
        }
      },
      "deposit(bytes32,address,bytes)": {
        "details": "Depending if the corresponding {tokenAddress} for the parsed {resourceID} is marked true in {_tokenContractAddressToTokenProperties[tokenAddress].isBurnable}, deposited tokens will be burned, if not, they will be locked.",
        "params": {
          "data": "Consists of {amount}, {recipient}, {optionalGas}, {optionalMessage}, padded to 32 bytes.",
          "depositor": "Address of account making the deposit in the Bridge contract.",
          "resourceID": "ResourceID used to find address of token to be used for deposit."
        },
        "returns": {
          "_0": "32-length byte array with internal bridge amount OR empty byte array if conversion is not needed."
        }
      },
      "executeProposal(bytes32,bytes)": {
        "params": {
          "data": "Consists of {amount}, {recipient}, {optionalGas}, {optionalMessage}, padded to 32 bytes.",
          "resourceID": "ResourceID to be used when making deposits."
        }
      },
      "getRoleAdmin(bytes32)": {
        "details": "Returns the admin role that controls `role`. See {grantRole} and {revokeRole}. To change a role's admin, use {_setRoleAdmin}."
      },
      "getRoleMember(bytes32,uint256)": {
        "details": "Returns one of the accounts that have `role`. `index` must be a value between 0 and {getRoleMemberCount}, non-inclusive. Role bearers are not sorted in any particular way, and their ordering may change at any point. WARNING: When using {getRoleMember} and {getRoleMemberCount}, make sure you perform all queries on the same block. See the following https://forum.openzeppelin.com/t/iterating-over-elements-on-enumerableset-in-openzeppelin-contracts/2296[forum post] for more information."
      },
      "getRoleMemberCount(bytes32)": {
        "details": "Returns the number of accounts that have `role`. Can be used together with {getRoleMember} to enumerate all bearers of a role."
      },
      "getRoleMemberIndex(bytes32,address)": {
        "details": "Returns the index of the account that have `role`."
      },
      "grantRole(bytes32,address)": {
        "details": "Grants `role` to `account`. If `account` had not been already granted `role`, emits a {RoleGranted} event. Requirements: - the caller must have ``role``'s admin role."
      },
      "hasRole(bytes32,address)": {
        "details": "Returns `true` if `account` has been granted `role`."
      },
      "renounceRole(bytes32,address)": {
        "details": "Revokes `role` from the calling account. Roles are often managed via {grantRole} and {revokeRole}: this function's purpose is to provide a mechanism for accounts to lose their privileges if they are compromised (such as when a trusted device is misplaced). If the calling account had been granted `role`, emits a {RoleRevoked} event. Requirements: - the caller must be `account`."
      },
      "revokeRole(bytes32,address)": {
        "details": "Revokes `role` from `account`. If `account` had been granted `role`, emits a {RoleRevoked} event. Requirements: - the caller must have ``role``'s admin role."
      },
      "setBurnable(address)": {
        "params": {
          "contractAddress": "Address of contract to be used when making or executing deposits."
        }
      },
      "setResource(bytes32,address,bytes)": {
        "params": {
          "args": "Byte array which is either empty if the token contract decimals are the same as the bridge defaultDecimals, or has a first byte set to the uint8 decimals value of the token contract.",
          "contractAddress": "Address of contract to be called when a deposit is made and a deposited is executed.",
          "resourceID": "ResourceID to be used when making deposits."
        }
      },
      "withdraw(bytes)": {
        "params": {
          "data": "Consists of {tokenAddress}, {recipient}, and {amount} all padded to 32 bytes."
        }
      }
    },
    "title": "Handles ERC20 deposits and deposit executions.",
    "version": 1
  },
  "userdoc": {
    "kind": "user",
    "methods": {
      "_resourceIDToTokenContractAddress(bytes32)": {
        "notice": "Exposing getter for {_resourceIDToTokenContractAddress}."
      },
      "deposit(bytes32,address,bytes)": {
        "notice": "A deposit is initiated by making a deposit in the Bridge contract.Data passed into the function should be constructed as follows: amount                             uint256 bytes  0 - 32 destinationRecipientAddress length uint256 bytes 32 - 64 destinationRecipientAddress        bytes   bytes 64 - (64 + len(destinationRecipientAddress)) optionalGas                        uint256 bytes (64 + len(destinationRecipientAddress)) - (96 + len(destinationRecipientAddress)) optionalMessage             length uint256 bytes (96 + len(destinationRecipientAddress)) - (128 + len(destinationRecipientAddress)) optionalMessage                    bytes   bytes (160 + len(destinationRecipientAddress)) - END"
      },
      "executeProposal(bytes32,bytes)": {
        "notice": "Proposal execution should be initiated when a proposal is finalized in the Bridge contract. by a relayer on the deposit's destination chain.Data passed into the function should be constructed as follows: amount                             uint256 bytes  0 - 32 destinationRecipientAddress length uint256 bytes 32 - 64 destinationRecipientAddress        bytes   bytes 64 - (64 + len(destinationRecipientAddress)) optionalGas                        uint256 bytes (64 + len(destinationRecipientAddress)) - (96 + len(destinationRecipientAddress)) optionalMessage             length uint256 bytes (96 + len(destinationRecipientAddress)) - (128 + len(destinationRecipientAddress)) optionalMessage                    bytes   bytes (160 + len(destinationRecipientAddress)) - END"
      },
      "setBurnable(address)": {
        "notice": "First verifies {contractAddress} is whitelisted, then sets {_tokenContractAddressToTokenProperties[contractAddress].isBurnable} to true."
      },
      "setResource(bytes32,address,bytes)": {
        "notice": "Sets {_resourceIDToContractAddress} with {contractAddress}, {_tokenContractAddressToTokenProperties[tokenAddress].resourceID} with {resourceID} and {_tokenContractAddressToTokenProperties[tokenAddress].isWhitelisted} to true for {contractAddress} in ERCHandlerHelpers contract. Sets decimals value for contractAddress if value is provided in args."
      },
      "withdraw(bytes)": {
        "notice": "Used to manually release ERC20 tokens from ERC20Safe.Data passed into the function should be constructed as follows: tokenAddress                           address     bytes  0 - 32 recipient                              address     bytes  32 - 64 amount                                 uint        bytes  64 - 96"
      }
    },
    "notice": "This contract is intended to be used with the Bridge contract.",
    "version": 1
  }
}